{
  "_format": "hh-sol-artifact-1",
  "contractName": "TestGas",
  "sourceName": "contracts/TestGas.sol",
  "abi": [
    {
      "inputs": [],
      "name": "test1",
      "outputs": [],
      "stateMutability": "nonpayable",
      "type": "function"
    },
    {
      "inputs": [],
      "name": "test2",
      "outputs": [],
      "stateMutability": "nonpayable",
      "type": "function"
    },
    {
      "inputs": [],
      "name": "test3",
      "outputs": [],
      "stateMutability": "nonpayable",
      "type": "function"
    },
    {
      "inputs": [],
      "name": "test4",
      "outputs": [],
      "stateMutability": "nonpayable",
      "type": "function"
    },
    {
      "inputs": [],
      "name": "test5",
      "outputs": [],
      "stateMutability": "nonpayable",
      "type": "function"
    }
  ],
  "bytecode": "0x608060405234801561001057600080fd5b50610215806100206000396000f3fe608060405234801561001057600080fd5b50600436106100575760003560e01c80630a8e8e011461005c5780631ad7be821461006657806366e41cb7146100705780636b59084d1461007a5780638f0d282d14610084575b600080fd5b61006461008e565b005b61006e6100a8565b005b6100786100c8565b005b6100826100f9565b005b61008c610112565b005b600260008154809291906100a190610163565b9190505550565b6100b0610112565b6002546000546100c091906101ab565b600181905550565b600160008154809291906100db90610163565b91905055506000808154809291906100f290610163565b9190505550565b60008081548092919061010b90610163565b9190505550565b60015460005461012291906101ab565b600281905550565b7f4e487b7100000000000000000000000000000000000000000000000000000000600052601160045260246000fd5b6000819050919050565b600061016e82610159565b91507fffffffffffffffffffffffffffffffffffffffffffffffffffffffffffffffff82036101a05761019f61012a565b5b600182019050919050565b60006101b682610159565b91506101c183610159565b92508282019050808211156101d9576101d861012a565b5b9291505056fea2646970667358221220b68e637caa9b0ed2b60b6ba1f2f9310282818a080f9992866a1350c92727427c64736f6c63430008180033",
  "linkReferences": {},
  "deployedLinkReferences": {}
}