{
  "_format": "hh-sol-artifact-1",
  "contractName": "Counter",
  "sourceName": "contracts/Counter.sol",
  "abi": [
    {
      "anonymous": false,
      "inputs": [
        {
          "indexed": false,
          "internalType": "uint256",
          "name": "counter",
          "type": "uint256"
        }
      ],
      "name": "CounterInc",
      "type": "event"
    },
    {
      "inputs": [],
      "name": "count",
      "outputs": [],
      "stateMutability": "nonpayable",
      "type": "function"
    },
    {
      "inputs": [],
      "name": "getCounter",
      "outputs": [
        {
          "internalType": "uint32",
          "name": "",
          "type": "uint32"
        }
      ],
      "stateMutability": "view",
      "type": "function"
    }
  ],
  "bytecode": "0x608060405234801561001057600080fd5b506103f5806100206000396000f3fe608060405234801561001057600080fd5b50600436106100365760003560e01c806306661abd1461003b5780638ada066e14610045575b600080fd5b610043610063565b005b61004d6100f6565b60405161005a919061020a565b60405180910390f35b6000808154809291906100759061025e565b91905055506100bb6040518060400160405280600f81526020017f636f756e746572206973206e6f772000000000000000000000000000000000008152506000546100ff565b7feec7b728df2430a6685bba924a4a787b147d45a2b38034570f9fe9613a91ea446000546040516100ec91906102b5565b60405180910390a1565b60008054905090565b6101978282604051602401610115929190610360565b6040516020818303038152906040527fb60e72cc000000000000000000000000000000000000000000000000000000007bffffffffffffffffffffffffffffffffffffffffffffffffffffffff19166020820180517bffffffffffffffffffffffffffffffffffffffffffffffffffffffff838183161783525050505061019b565b5050565b6101b2816101aa6101b56101d6565b63ffffffff16565b50565b60006a636f6e736f6c652e6c6f679050600080835160208501845afa505050565b6101e1819050919050565b6101e9610390565b565b600063ffffffff82169050919050565b610204816101eb565b82525050565b600060208201905061021f60008301846101fb565b92915050565b7f4e487b7100000000000000000000000000000000000000000000000000000000600052601160045260246000fd5b6000819050919050565b600061026982610254565b91507fffffffffffffffffffffffffffffffffffffffffffffffffffffffffffffffff820361029b5761029a610225565b5b600182019050919050565b6102af81610254565b82525050565b60006020820190506102ca60008301846102a6565b92915050565b600081519050919050565b600082825260208201905092915050565b60005b8381101561030a5780820151818401526020810190506102ef565b60008484015250505050565b6000601f19601f8301169050919050565b6000610332826102d0565b61033c81856102db565b935061034c8185602086016102ec565b61035581610316565b840191505092915050565b6000604082019050818103600083015261037a8185610327565b905061038960208301846102a6565b9392505050565b7f4e487b7100000000000000000000000000000000000000000000000000000000600052605160045260246000fdfea2646970667358221220f8838fbef2364dce5dfbf6a50b561b456ede3dab188bb935c868985dd6e19af164736f6c63430008180033",
  "linkReferences": {},
  "deployedLinkReferences": {}
}